:02000002B0004C
:1040000000400B00A85F0B00000006000C0005023A
:084010000401A30F00000000F1
:04401800745B0B00CA
:10401C0009480A49884208B505D0094A824202D0AB
:10402C00121A01F0EFFC0748074A0021121A01F09E
:10403C00F7FC014808BD00BFF8E50320C85E0B0083
:10404C00B0E60320B0E60320EDE7032070B5074E81
:10405C00074C01F08FFBA41BA4080025AC4200D137
:10406C0070BD56F8043B98470135F7E7785E0B00B6
:10407C00985E0B0000F014BB08B500F0F7FCBDE82F
:10408C00084001F02FBB00F0C9BE00F0CFBE007895
:10409C00B0FA80F040097047012303707047012388
:1040AC000376438C83847047F8B51F2AC76928BFF1
:1040BC001F2204460E4638461146154600F0BEFE39
:1040CC00E06120B93846BDE8F84000F0AFBE0023EF
:1040DC00DAB2954204D9E269F15CD1540133F7E7C5
:1040EC00002384F8205023702373F8BDF7B50446E1
:1040FC0017460E4629B190F82930022B31D10129EF
:10410C002AD194F82700FF280AD001F0CDFB012812
:10411C00054605D194F82700002101F0ACFB00E026
:10412C00002594F82930022B18D116F0FD010191CD
:10413C0014D194F82800FF2810D001F0B5FB012809
:10414C0001990BD194F8280001F095FB4FB194F82C
:10415C002A3043B9C82008E00025E6E70FB1002D4E
:10416C00F5D103B0F0BD4FF4966003B0BDE8F0405C
:10417C0000F098BCF8B590F82A3005460C4663B1AF
:10418C00084601F091FB012807D12046002101F0DF
:10419C0072FB4FF4966000F085FC0121204601F083
:1041AC006AFB00F087FC95F82A3086B2E3B195F8EB
:1041BC002B30CBB100F0E2FE002795F82B20FBB2A0
:1041CC009A420FD9012000F06DFC0021204601F02D
:1041DC0052FB012000F066FC0121204601F04BFB54
:1041EC000137EAE700F0CCFE3046F8BD2DE9F0418E
:1041FC000446174600250E4629B190F82930022BAB
:10420C0044D1012938D194F82700FF280FD094F815
:10421C002A3043B194F827102046FFF7ABFF4FF03C
:10422C000108054605E001F03FFB0028F2D04FF0F5
:10423C00000894F82930022B24D116F0FD0F21D15F
:10424C0094F82800FF281DD094F82A30B3B194F8C4
:10425C0028102046FFF78EFF0546BFB194F82A3090
:10426C00B3B100F027FC401B80B2B0F5967F0DD2A5
:10427C000A2000F017FCF4E7A846DEE701F014FB77
:10428C000028E4D017B1B8F1000FE7D1BDE8F081F8
:10429C00BDE8F041C82000F005BC70B504460E46E0
:1042AC0003292DD8DFE801F01E2A02240121002267
:1042BC002046FFF71BFF00F0FDFB012205463146AF
:1042CC002046FFF793FF94F82A30CBB1ADB200F043
:1042DC00F1FB401B80B2B0F5966F11D20A2000F0B2
:1042EC00E1FBF4E7BDE8704001220021FFF77EBF3F
:1042FC00BDE8704001220021FFF7F8BE0221D6E78D
:10430C0070BD2DE9F0471F46C36904460E4615469D
:10431C0023B1037E012B03D0022B5BD0BDE8F087C9
:10432C00904694F82030434514D90FFA88F3A28CA8
:10433C0026F81320E369012113F8080001F08AFA2A
:10434C00E369012113F80800B84401F094FA5FFA0C
:10435C0088F8E6E70A2000F0A5FB00F00FFE00F05D
:10436C00A9FBA846824694F82030434509D9E36955
:10437C00002113F80800B84401F06CFA5FFA88F8D1
:10438C00F1E700F0FDFD4FF00008A38C4345C5D9C3
:10439C0000F0F4FD00F08EFBA0EB0A001FFA80F891
:1043AC00A94694F820304B4511D9E36913F809005C
:1043BC0001F07AFA38B90FFA89F336F8132042452E
:1043CC0088BF26F81380B9445FFA89F9E9E700F051
:1043DC00D7FDDAE71346002194F820209A4205D93C
:1043EC001AB23B4426F81210DBB2F5E74FF0000985
:1043FC0094F826205FFA89F39A4217D9A84694F8C4
:10440C00203043450FD9E36913F8080001F05FFA37
:10441C000FFA88F3B84436F81320104426F813002A
:10442C005FFA88F8EBE709F10109E1E794F820302D
:10443C00AB427FF673AF94F8262036F8153003EBB9
:10444C005203B3FBF2F326F815303D44EDB2EDE721
:10445C0070B5044690B00D461646052A55D8DFE8CF
:10446C0002F003101044440701220021FFF73EFE26
:10447C00012300222946204610B0BDE87040FFF70A
:10448C0040BF01220021FFF7B1FE01230022294683
:10449C002046FFF736FF012200212046FFF726FEBB
:1044AC00022E01D0042E30D1694601230022204671
:1044BC00FFF727FF002194F82030CAB2934224D989
:1044CC0010AB03EB4200A38C30F8400C1B1A35F8F0
:1044DC00120003449BB225F81230A08C834228BFF3
:1044EC00034625F812300131E5E70121FFF7D5FE2F
:1044FC000223002229462046FFF703FF0221204613
:10450C00FFF7CBFE02230122C1E710B070BD2DE9ED
:10451C00F0410E78B0B005460C4617465EBBD1F89C
:10452C00088090F820104046490000F087FCA060FD
:10453C0028B9404630B0BDE8F04100F077BCD4F863
:10454C00048095F820104046490000F077FC60602C
:10455C000028EED0334695F82010DAB2914208D9F3
:10456C00A16821F812606168A88C21F8120001334F
:10457C00F1E70123237000263A4669462846FFF7E7
:10458C0067FF95F820C06B4620AA10A900205FFA9F
:10459C0080FEF4451CD986B1B3F80080B1F800E078
:1045AC00F0450AD8B3F80080B2F800E0F0450AD321
:1045BC000130023302320231E9E7B3F800E0A1F82E
:1045CC0000E0002EEED1B3F800E0A2F800E0EFE737
:1045DC000136F6B20A2ECFD1002295F82010D3B2B4
:1045EC00994219D930A800EB4300590030F8406CBF
:1045FC00A06830F81370B74238BF20F8136030A8A9
:10460C000144013231F8800C616831F81360864244
:10461C0088BF21F81300E0E730B0BDE8F081052930
:10462C0038B505460C461AD04B1E012B0DD801226D
:10463C000146FFF76CFF022C11D105F10C01284645
:10464C000022BDE83840FFF762BFCB1E012B03D818
:10465C0003220146FFF75BFF14F0FB0FEDD038BDD2
:10466C0010B5044600F06CFF044900F0F4FDA0B254
:10467C000121BDE8104001F0FEB800BF885B0B00C3
:10468C0010B5044600F05CFF044900F0E4FDA0B254
:10469C000021BDE8104001F0EEB800BF8F5B0B00AD
:1046AC00F0B585B000F04CFF4FF4165100F03CFF14
:1046BC0000F046FF3E493F4D3F4E404C00F0CBFDD5
:1046CC003F48FFF7ECFC03223E493D48FFF7ECFC6A
:1046DC002888012101F0BEF83B4B0121188801F01C
:1046EC00B9F83A4B0121188801F0B4F8308801214F
:1046FC0001F0B0F82088012101F0ACF8B088304E00
:10470C00012101F0A7F8A088012101F0A3F8286885
:10471C00FFF7A6FF4FF4C874013C01213046A4B248
:10472C00FFF77DFF002CF7D12868294F244EFFF7A7
:10473C00A7FF00F005FF394600F08DFD00F000FFEB
:10474C0073680A22195B0546684600F01AFE009948
:10475C00284600F080FD0234684600F0B5FD062CBA
:10476C00E7D11C4F002400F0EBFE394600F073FD3E
:10477C0000F0E6FEB3680A22195B0546684600F0B5
:10478C0000FE0099284600F066FD0234684600F0F1
:10479C009BFD062CE7D100F0D3FE0F4900F05BFD2A
:1047AC0041F2883005B0BDE8F04000F05FBB00BFBF
:1047BC00975B0B000CE60320FCE5032004E60320CA
:1047CC0010E60320915C0B00F8E5032040E6032083
:1047DC00AF5B0B00C85B0B00E15B0B0038B50E4DFB
:1047EC00044600F0ADFE0D4900F035FD288801218E
:1047FC0001F041F8A8880A4D002101F03CF8288806
:10480C00012101F038F8A888002101F034F8204685
:10481C00BDE8384000F02ABBFCE50320EE5B0B0042
:10482C0004E6032038B50E4D044600F089FE0D4910
:10483C0000F011FD2888002101F01DF8A8880A4D10
:10484C00012101F018F82888002101F014F8A8883B
:10485C00012101F010F82046BDE8384000F006BBFD
:10486C00FCE50320015C0B0004E6032038B50E4D7B
:10487C00044600F065FE0D4900F0EDFC288800218F
:10488C0000F0F9FFA8880A4D012100F0F4FF2888F8
:10489C00012100F0F0FFA888002100F0ECFF204679
:1048AC00BDE8384000F0E2BAFCE50320135C0B00D5
:1048BC0004E6032008B5042813D8DFE800F0030D44
:1048CC0008030800BDE808400120FFF7ABBFBDE8B6
:1048DC0008400420FFF782BFBDE808400120FFF725
:1048EC00C5BF00F02DFEBDE80840014900F0B3BC87
:1048FC00235C0B00064B5A881988914205D2988884
:10490C0090422CBF0020012070470020704700BF50
:10491C00B0E60320044B98881B88C01A1D28D4BF0E
:10492C0000200120704700BFB0E60320044B18881C
:10493C009B88C01A1D28D4BF00200120704700BFDF
:10494C00B0E60320064B1A885988914205D2988804
:10495C0090422CBF0020012070470020704700BF00
:10496C00B0E60320064B9A881988914205D25888E4
:10497C0090422CBF0020012070470020704700BFE0
:10498C00B0E6032010B5FFF7B5FF80B9FFF7C2FF03
:10499C0078B9FFF7CBFF044668B9FFF7D3FF60B9CE
:1049AC00FFF7E0FF00280CBF0120022010BD012002
:1049BC00FCE70420FAE70320F8E72046F6E70000BE
:1049CC0030B5254C254885B001222146FFF740FD26
:1049DC0000F0B6FD224900F03EFC00F0B1FD0A22C9
:1049EC0021880546684600F0CCFC0099284600F06A
:1049FC0032FC684600F068FC00F0A2FD194900F09A
:104A0C002AFC00F09DFD0A2261880546684600F0EC
:104A1C00B8FC0099284600F01EFC684600F054FCD7
:104A2C0000F08EFD104900F016FC00F089FD0A2202
:104A3C00A1880546684600F0A4FC0099284600F0C1
:104A4C000AFC684600F040FC2046FFF79BFF05B0CF
:104A5C00BDE83040FFF72EBFB0E6032010E6032080
:104A6C003C5C0B00535C0B006B5C0B0008B500F05E
:104A7C0067FD034900F0EFFBBDE80840FFF7A0BF5E
:104A8C00835C0B0008B5024B1B685B6C019308BD83
:104A9C004802030008B5024B1B685B68019308BD14
:104AAC001802030008B5024B1B68DB68019308BDB4
:104ABC001802030008B5024B1B681B69019308BD63
:104ACC001802030008B5024B1B685B69019308BD13
:104ADC001802030008B5024B1B685B68019308BD04
:104AEC002C02030008B5024B1B689B68019308BDA0
:104AFC002C02030008B5024B1B68DB68019308BD50
:104B0C002C02030008B5024B1B681B69019308BDFE
:104B1C002C02030008B5024B1B685B69019308BDAE
:104B2C002C02030008B5024B1B681B6A019308BDDD
:104B3C002C02030008B5024B1B685B6A019308BD8D
:104B4C002C02030008B5024B1B681B6B019308BDBC
:104B5C002C02030008B5024B1B681B6A019308BDAD
:104B6C002802030008B5024B1B685B6A019308BD61
:104B7C002802030008B5024B1B689B6A019308BD11
:104B8C002802030008B5024B1B68DB6A019308BDC1
:104B9C002802030008B5024B1B681B6B019308BD70
:104BAC002802030008B5024B1B685B6B019308BD20
:104BBC002802030008B5024B1B681B6C019308BD4F
:104BCC002802030008B5024B1B685B69019308BD02
:104BDC006402030008B5024B1B689B68019308BD77
:104BEC006802030008B5024B1B68DB68019308BD23
:104BFC006802030008B5024B1B68DB69019308BD12
:104C0C003002030008B5024B1B681B6A019308BDF8
:104C1C003002030008B5024B1B68DB68019308BD2A
:104C2C003C02030008B5024B1B681B69019308BDCD
:104C3C003C02030008B5024B1B685B69019308BD7D
:104C4C003C02030008B5024B1B689B69019308BD2D
:104C5C003C02030008B5024B1B68DB69019308BDDD
:104C6C003C02030008B5024B1B681B6A019308BD8C
:104C7C003C02030008B5024B1B689B6A019308BDFC
:104C8C003C02030008B5024B1B681B6C019308BD6A
:104C9C003C02030008B5024B1B681B68019308BD5E
:104CAC004C02030008B5024B1B685B68019308BDFE
:104CBC004C02030008B5024B1B681B69019308BD2D
:104CCC004C02030008B5024B1B685B69019308BDDD
:104CDC004C02030008B5024B1B689B69019308BD8D
:104CEC004C02030008B5024B1B68DB69019308BD3D
:104CFC004C02030008B5024B1B681B6A019308BDEC
:104D0C004C02030008B5024B1B685B68019308BD9D
:104D1C002002030008B5024B1B685B69019308BDB8
:104D2C002002030008B5034B1B68D3F888300193AD
:104D3C0008BD00002002030008B5034B1B68D3F824
:104D4C009430019308BD00002002030008B5024B0B
:104D5C001B68DB6B019308BD4402030008B5024BD2
:104D6C001B685B68019308BD4002030008B5024B49
:104D7C001B689B68019308BD4002030008B5024BF9
:104D8C001B68DB68019308BD4002030008B5024BA9
:104D9C001B681B69019308BD4002030008B5024B58
:104DAC001B685B69019308BD4002030008B5024B08
:104DBC001B689B69019308BD4002030008B5024BB8
:104DCC001B68DB69019308BD4002030008B5024B68
:104DDC001B681B6A019308BD4002030008B5024B17
:104DEC001B681B6B019308BD4002030008B5024B06
:104DFC001B685B6B019308BD4002030008B5024BB6
:104E0C001B681B6C019308BD4002030008B5024BE4
:104E1C001B685B6C019308BD4002030008B5024B94
:104E2C001B681B68019308BD1C02030008B5024BEC
:104E3C001B685B68019308BD1C02030008B5024B9C
:104E4C001B689B68019308BD1C02030008B5024B4C
:104E5C001B681B6C019308BD1C02030008B5024BB8
:104E6C001B685B6C019308BD1C0203000021FFF75B
:104E7C0051BF0000024800230360FFF703BE00BFD0
:104E8C00B8E60320002240681146FFF79FBF0022BE
:104E9C0040681146FFF7AABF40680022FFF79EBF8B
:104EAC004068002281F00101FFF788BF00234068B1
:104EBC001A461946FFF77ABF002340681A4619466E
:104ECC00FFF76CBF002240681146FFF75FBF00225E
:104EDC0040681146FFF74ABF406800220221FFF7E5
:104EEC004DBF002340681A46FFF738BF024B032220
:104EFC005A60024A1A607047BCE603209C5C0B00A7
:104F0C007047F8B5064615460C468F18BC4206D0BD
:104F1C00336814F8011B9B6830469847F6E728461F
:104F2C00F8BD007C0022FFF715BE007C0021FFF7C6
:104F3C0019BE007C0021FFF71DBE007C0021FFF78D
:104F4C0021BE007C0021FFF725BE10B514210446BC
:104F5C00FFF79BF8204610BD10B54FF47A7304464A
:104F6C0008460021C4E90113034B23602074114649
:104F7C00FFF720FE204610BDD85C0B00FFF7DABD12
:104F8C00FFF7D0BD704710B518210446FFF77DF828
:104F9C00204610BDF0B5037D062B8DB00E4600F1FA
:104FAC0004074FF0000412D000F1080515F8011D9C
:104FBC000A22304600F059F9AF42044419D0002CB3
:104FCC00F4D02E21304600F037F90444EEE72F23BD
:104FDC006A4639460A208DF80040FFF7F3FD684613
:104FEC0000F054FD33680246DB686946304698474A
:104FFC00044620460DB0F0BD10B5054B04461122F9
:10500C0040F8043B002100F00BFD204610BD00BF12
:10501C00005D0B000346074A10B543F8042B01F161
:10502C00100251F8044B43F8044B9142F9D10A7821
:10503C001A7010BD005D0B0010B59DF8084044EAD5
:10504C00032343EA024242EA0161042341600375EF
:10505C0010BD000007B5064B0360CB7800938B782E
:10506C004A780978FFF7E8FF03B05DF804FB00BF4E
:10507C00005D0B00014B024A1A607047C4E6032026
:10508C000C5D0B00002340681A46FFF767BE4068B2
:10509C0000220221FFF772BE002240681146FFF782
:1050AC0065BE002240681146FFF770BE00234068C1
:1050BC001A461946FFF772BE002340681A46194675
:1050CC00FFF774BE40680021FFF798BE40680021CE
:1050DC00FFF79CBE4068002281F00101FFF76EBE15
:1050EC0040680022FFF77ABE002240681146FFF7A5
:1050FC007DBE002240681146FFF768BE2DE9F043E3
:10510C0095B014460D460746FFF776FF00211C228A
:10511C000DA8009100F084FC40230C9320466B46B4
:10512C000CAA0021FFF75EFD044600284BD1024675
:10513C0001216868FFF72AFE022180462246686832
:10514C00FFF724FE009E81462146002E3BD000290D
:10515C0039D17368022B03D00A2B11D0F669F4E70E
:10516C00B8F1000FFAD0716906A8043107ADFFF74A
:10517C0071FF0FCD3C1D0FC42B6823704146EDE72A
:10518C00B9F1000FEAD07469102201A800F048FCB4
:10519C0006238DF8143001AD04F108031834186897
:1051AC0059682A4603C20833A3421546F7D101A910
:1051BC0006A807ADFFF72EFF0FCD3C1D0FC42B68C3
:1051CC0023704946CAE70098FFF704FD384615B02E
:1051DC00BDE8F083024B034A1A6000225A60704704
:1051EC00C8E60320185D0B00F8B506460D468F186F
:1051FC000024BD420CD0336815F8011B9B68304667
:10520C009847031E01DB1C44F3E7002C08BF1C4627
:10521C002046F8BD13B50446084659B1019100F07B
:10522C0035FC23680199DB680246204602B0BDE8D4
:10523C001040184702B010BD03689B68184738B57A
:10524C000D210546FFF7F8FF0A2104462846FFF713
:10525C00F3FF204438BD38B50546FFF7DBFF0446A5
:10526C002846FFF7ECFF204438BD30B58BB0002347
:10527C00012A8DF8243098BF0A2209AC0D46B1FBE7
:10528C00F2F101FB125303F0FF03092B94BF3033EF
:10529C003733DBB2AA4204F8013DEFD92146FFF7C0
:1052AC00B9FF0BB030BD0000014B00229A60704773
:1052BC00D0E6032010B5044608462170FFF79AFC8F
:1052CC0000236360204610BD10B504460068FFF74C
:1052DC00ADFD204610BD10B50446006808B1FFF7BF
:1052EC00A5FD0023C4E90133236010BD38B5044685
:1052FC000D4600680131FFF7A1FD10B1C4E90005AE
:10530C00012038BD10B50368044623B143688B42B5
:10531C0001D3012010BD2046FFF7E8FF0028F9D08B
:10532C00A368002BF5D122681370F2E737B50D4650
:10533C00114601920446FFF7E5FF019A28B9204671
:10534C00FFF7C9FF204603B030BDA2602946206894
:10535C0000F058FB2268A3680021D154F2E713B582
:10536C00044659B10846019100F090FB01990246A0
:10537C002046FFF7DBFF204602B010BDFFF7ABFF66
:10538C00F9E710B504468AB00023C4E90033A360E2
:10539C002373084601A900F06DF901A92046FFF717
:1053AC00DEFF20460AB010BD054B02221A60054BE9
:1053BC00054A9A600020C3E90000FFF7A3BC00BFB8
:1053CC00ECE60320E0E603200000FFFF024B1A6826
:1053DC00024B1A60704700BF44E60320F0E603203E
:1053EC0070474174704708B5007CFFF743FC20EA16
:1053FC00E07008BD08B5007CFFF714FC20EAE070F3
:10540C0008BD08B5007CFFF71DFC40EAE07008BD44
:10541C0008B5007CFFF70EFC40EAE07008BD007C8C
:10542C00FFF718BC37B5457C04462DB1207C03B082
:10543C00BDE83040FFF7EEBB007C0191FFF71AFC92
:10544C0000280199F2DC284603B030BD10B51421B8
:10545C000446FEF71AFE204610BD000010B54FF4AE
:10546C007A730446084611460022C4E90123044B12
:10547C002360012320746374FFF704FC204610BDE5
:10548C00705D0B00417470477047704708B5002180
:10549C00007CFFF71FFC40EAE07008BD08B5012155
:1054AC00007CFFF717FC40EAE07008BD08B5007CF3
:1054BC00FFF708FC20EAE07008BD08B5007CFFF798
:1054CC00F9FB20EAE07008BD13B50446007C01919D
:1054DC00FFF7F8FB0028019901DC607C20B1207CEF
:1054EC00FFF700FC20EAE07002B010BD007CFFF773
:1054FC0001BC10B514210446FEF7C7FD204610BDB3
:10550C0010B54FF47A73044608460021C4E9011320
:10551C00044B23600123207463741146FFF7BAFB1C
:10552C00204610BDA05D0B00007C0022FFF7BABB2B
:10553C0010B514220446002100F072FA204610BD6A
:10554C0010B50F4C88B003A8FFF7F2FF2178BFF31A
:10555C005B8F11F001010FD120460191FEF797FDF1
:10556C00019948B103AA0748FFF7CAFF2046FEF786
:10557C0093FD054800F040FA024808B010BD00BF8A
:10558C00F4E60320F8E6032095540B000022406853
:10559C001146FFF7FBBB002240681146FFF716BC13
:1055AC00002240681146FFF721BC40680022FFF73B
:1055BC0015BC4068002281F00101FFF7FFBB0023FE
:1055CC0040681A461946FFF7F1BB002340681A469B
:1055DC001946FFF7E3BB002240681146FFF7C6BB34
:1055EC00406800220221FFF7C9BB002340681A461D
:1055FC00FFF7B4BB024B04225A60024A1A60704790
:10560C000CE70320D05D0B0010B5044600F03EFA09
:10561C00013823182046834206D90278197800F8FD
:10562C00011B03F80129F6E710BD70B50C46911E5D
:10563C0022291DD8254630B9234430229D4210D250
:10564C0005F8012BFAE7B0FBF2F602FB1600C1B22B
:10565C00092894BF30315731C9B205F8011B3046C7
:10566C00E9E7002320462B70FFF7CEFF204670BDE4
:10567C000020FCE738B5031E0C4615460EDAB3F1D4
:10568C00004F4FF02D0214BF5842184601230A70E8
:10569C002A461944FFF7C9FF204638BD0123F9E714
:1056AC00014B1860704700BF48E6032008B50B4B50
:1056BC0043B1FFF745FF03681B699847002801DDDC
:1056CC00AFF30080064B43B100F070F903681B691F
:1056DC009847002801DDAFF3008008BD00000000F2
:1056EC000000000008B5FFF7E1FFFFF7EBF9014BF5
:1056FC00186008BD28E703200548064A064908B586
:10570C00121A00F07FF9054B054A1A6008BD00BF5C
:10571C0000F4032004F40320C45E0B0000F4032007
:10572C001E1C279A07B5002300931A466FF07701C9
:10573C00FFF702FB03B05DF804FB000007B54388DC
:10574C000A2B08D0502B0BD1094B1B684BB103B063
:10575C005DF804EB1847FFF7E5FF03B05DF804FBB9
:10576C00002300931A466FF07701FFF7E5FAF4E790
:10577C0018E7032010B512480021FFF76FFB114BFF
:10578C001A68114B9A42114B0CBF012200221A705D
:10579C0001D0FFF7B1FFFFF77DF9044600F048F99F
:1057AC000B4B13B12046AFF3008000210848FFF7E4
:1057BC00CDFABDE8104007480021FFF7B3BA00BF8F
:1057CC00AD560B0000F403201E1C279A14E703208F
:1057DC000000000049570B00232813B502D9002004
:1057EC0002B010BDA0F10B03022B1AD8174C217874
:1057FC00BFF35B8F11F001010BD120460191FEF735
:10580C0046FC019928B11248FFF754FD2046FEF7DB
:10581C0043FC0F4B1878FFF7F5F90028DFD1012076
:10582C00DEE7012809D800F081F80021007CFFF7A1
:10583C00B9F980F00100C0B2D2E709380128EED8DE
:10584C0000F0B4F8007CFFF70DFAF2E71CE7032038
:10585C0020E70320232838B504460D460AD8FF2933
:10586C0008D0FFF7B9FF28B129462046BDE83840DB
:10587C00FFF738B938BD38B504460D46FFF73AF98D
:10588C00FF2810D0062804D84D2323FA00F0C307B4
:10589C0009D42046FFF7A0FF28B129462046BDE8D1
:1058AC003840FFF72FB938BD10B50446FFF722F981
:1058BC00031FDBB2012B08D92046FFF78DFF20B167
:1058CC002046BDE81040FFF725B9002010BD0D287B
:1058DC0010B504469CBF0E34A4B22046FFF77CFFE3
:1058EC0050B103212046FFF7F5F8032804D12046D8
:1058FC00BDE81040FFF726B9002010BD704700002E
:10590C0038B52025142304460360856005610649DB
:10591C00284600F06FF804496060284600F06AF8E9
:10592C00E060204638BD00BF045E0B0030B50E4D64
:10593C002978BFF35B8F11F0010487B011D1284691
:10594C00FEF7A5FB68B101A8FFF7DAFF01AA214613
:10595C000648FFF701FB2846FEF79EFB044800F0C3
:10596C004BF8024807B030BD2CE7032030E703208A
:10597C0009590B007047000038B5044614252A4617
:10598C00002100F04DF82580402507492581284647
:10599C00258200F02FF804496060284600F02AF8B0
:1059AC00E060204638BD00BF045E0B0030B50E4DE4
:1059BC002978BFF35B8F11F0010487B011D1284611
:1059CC00FEF765FB68B101A8FFF7D6FF01AA2146D7
:1059DC000648FFF743FD2846FEF75EFB044800F03F
:1059EC000BF8024807B030BD44E7032048E703201A
:1059FC0081590B00FEF747BB002301461A46184697
:105A0C0000F04CB80A44914200F1FF3300D17047CA
:105A1C0010B511F8014B03F8014F9142F9D110BDAB
:105A2C0002440346934200D1704703F8011BF9E787
:105A3C0038B5104B1D68AB6B0446B3B91820FFF793
:105A4C00EDF90246A86320B90B4B0C484221FFF735
:105A5C00FDF90B490B4BC0E900130B4B83600B2377
:105A6C00838100210120C2E90401AB6B00221C617F
:105A7C005A6138BD48E60320055E0B001C5E0B0026
:105A8C000E33CDAB34126DE6ECDE0500034613F895
:105A9C00012B002AFBD1181A013870472DE9F84365
:105AAC00DFF8B8800646D8F800001F460D46914630
:105ABC0000F056F8254B1C6834B9254C1C60254B5E
:105ACC0013B11B68C4F8883063681F2B07DDD8F846
:105ADC00000000F047F84FF0FF30BDE8F8834EB3FC
:105AEC00D4F8880088B91C4B23B9D8F8000000F012
:105AFC0038F8F0E74FF48470FFF790F90028F4D0F1
:105B0C000023C0E94033C4F88800636840F8239050
:105B1C0001229A4000EB8301D0F800311343C0F806
:105B2C000031022EC1F8807002BFD0F8043113434B
:105B3C00C0F804316368D8F800005A1C0233626064
:105B4C0044F8235000F00EF80020C6E7E8E70320E5
:105B5C005CE7032000000000294E0B00ACE603209C
:105B6C0070477047704700001D400B0059400B00F8
:105B7C0081400B0085400B00000000004C45442088
:105B8C006F6E004C4544206F6666005374617274EE
:105B9C00206F66207365747570207265616C207956
:105BAC00696E004D696E696D756D2063616C69621B
:105BBC0072617465642076616C7565004D617869FD
:105BCC006D756D2063616C696272617465642076B9
:105BDC00616C756500456E64206F66207365747525
:105BEC0070005475726E696E6720726967687420F4
:105BFC0068617264005475726E696E67206C6566BC
:105C0C007420686172640044726976696E672066FC
:105C1C006F7277617264002D2D2D2D2D4E4F204DFE
:105C2C004154434820464F554E442D2D2D2D2D00CB
:105C3C0056616C756520666F72206C656674207396
:105C4C00656E736F72200056616C756520666F729D
:105C5C00206D6964646C652073656E736F72005699
:105C6C00616C756520666F72207269676874207349
:105C7C00656E736F7220005374617274206F6620AE
:105C8C006C6F6F7000111213000000000000000018
:105C9C00EF4E0B00E54E0B00DB4E0B00D14E0B0014
:105CAC00C54E0B00B94E0B00D1500B00D9500B0058
:105CBC00AD4E0B00A54E0B009B4E0B00914E0B00F6
:105CCC0009510B0000000000000000000D4F0B00FC
:105CDC00574F0B002F4F0B000F4F0B00374F0B0084
:105CEC003F4F0B00474F0B004F4F0B0000000000C5
:105CFC0000000000A14F0B00914F0B00934F0B00C5
:105D0C0061707000000000000000000091500B005A
:105D1C009B500B00A5500B00AF500B00B9500B0063
:105D2C00C5500B00D1500B00D9500B00E1500B00AB
:105D3C00ED500B00F5500B00FF500B0009510B0000
:105D4C0025592D256D2D25645425483A254D3A2588
:105D5C0053257A0061736374696D6500000000005F
:105D6C0000000000ED530B0059540B0031540B0094
:105D7C00F5510B0001540B001D540B000F540B007C
:105D8C002B540B00EF530B00F3530B0000000000DF
:105D9C000000000097540B00FF540B00D5540B006F
:105DAC00F5510B00C7540B0099540B00A9540B0070
:105DBC00F9540B00B9540B0091540B000000000077
:105DCC0000000000F7550B00ED550B00E3550B00E0
:105DDC0099550B00D7550B00CB550B00D1500B0030
:105DEC00D9500B00BF550B00B7550B00AD550B0030
:105DFC00A3550B0009510B00005245454E54206D24
:105E0C00616C6C6F632073756363656564656400B6
:105E1C002F746D702F6A656E6B696E732D474343DB
:105E2C002D31302D706970656C696E652D34385F5D
:105E3C0032303230313132345F3136303631383005
:105E4C003633392F7372632F6E65776C69622F6EE0
:105E5C0065776C69622F6C6962632F7374646C690B
:105E6C00622F72616E642E6300000000814E0B0085
:105E7C00F94E0B0081500B00E1510B00B5520B0099
:105E8C00B5530B00D9530B0001560B00000000005A
:045E9C000000000002
:105EA000040000001400000003000000474E5500ED
:105EB0009F48FF0B8EC75C536CA963BB172728FB59
:045EC00099E53D081B
:045EC40000000000DA
:105EC800080000000F0000000E000000060000009F
:105ED80005000000070000000000000000000000AE
:105EE80000000000000000000000000000000000AA
:105EF80000000000000000000000C409C40904FFFD
:105F0800FF0001000000000002000000605D0B00BF
:105F18004CE6032000000000000000000000000024
:105F28000000000000000000000000000000000069
:105F38000000000000000000000000000000000059
:105F48000000000000000000000000000000000049
:105F58000000000000000000000000000000000039
:105F68000000000000000000000000000000000029
:085F780000000000ECE703202B
:105F8000FFFFFFFF00000102030405060708090ADE
:105F90000B0C0D0E0F101112131415161718191AD9
:085FA0001B1C1D1E1F20280020
:045FA80078563412E1
:04000003B000401CED
:00000001FF
